{
  "abi": [
    {
      "type": "function",
      "name": "FEE_RANGE",
      "inputs": [],
      "outputs": [
        {
          "name": "",
          "type": "uint64",
          "internalType": "uint64"
        }
      ],
      "stateMutability": "view"
    },
    {
      "type": "function",
      "name": "accumulatedFees",
      "inputs": [],
      "outputs": [
        {
          "name": "",
          "type": "uint256",
          "internalType": "uint256"
        }
      ],
      "stateMutability": "view"
    },
    {
      "type": "function",
      "name": "addLiquidity",
      "inputs": [
        {
          "name": "amount",
          "type": "uint256",
          "internalType": "uint256"
        }
      ],
      "outputs": [
        {
          "name": "shares",
          "type": "uint256",
          "internalType": "uint256"
        }
      ],
      "stateMutability": "nonpayable"
    },
    {
      "type": "function",
      "name": "atomicOutcomeSlotCount",
      "inputs": [],
      "outputs": [
        {
          "name": "",
          "type": "uint256",
          "internalType": "uint256"
        }
      ],
      "stateMutability": "view"
    },
    {
      "type": "function",
      "name": "calcMarginalPrice",
      "inputs": [
        {
          "name": "outcomeTokenIndex",
          "type": "uint8",
          "internalType": "uint8"
        }
      ],
      "outputs": [
        {
          "name": "price",
          "type": "uint256",
          "internalType": "uint256"
        }
      ],
      "stateMutability": "view"
    },
    {
      "type": "function",
      "name": "calcMarketFee",
      "inputs": [
        {
          "name": "outcomeTokenCost",
          "type": "uint256",
          "internalType": "uint256"
        }
      ],
      "outputs": [
        {
          "name": "",
          "type": "uint256",
          "internalType": "uint256"
        }
      ],
      "stateMutability": "view"
    },
    {
      "type": "function",
      "name": "calcNetCost",
      "inputs": [
        {
          "name": "outcomeTokenAmounts",
          "type": "int256[]",
          "internalType": "int256[]"
        }
      ],
      "outputs": [
        {
          "name": "netCost",
          "type": "int256",
          "internalType": "int256"
        }
      ],
      "stateMutability": "view"
    },
    {
      "type": "function",
      "name": "changeFee",
      "inputs": [
        {
          "name": "_fee",
          "type": "uint64",
          "internalType": "uint64"
        }
      ],
      "outputs": [],
      "stateMutability": "nonpayable"
    },
    {
      "type": "function",
      "name": "changeFunding",
      "inputs": [
        {
          "name": "fundingChange",
          "type": "int256",
          "internalType": "int256"
        }
      ],
      "outputs": [],
      "stateMutability": "nonpayable"
    },
    {
      "type": "function",
      "name": "close",
      "inputs": [],
      "outputs": [],
      "stateMutability": "nonpayable"
    },
    {
      "type": "function",
      "name": "collateralToken",
      "inputs": [],
      "outputs": [
        {
          "name": "",
          "type": "address",
          "internalType": "contract IERC20"
        }
      ],
      "stateMutability": "view"
    },
    {
      "type": "function",
      "name": "conditionIds",
      "inputs": [
        {
          "name": "",
          "type": "uint256",
          "internalType": "uint256"
        }
      ],
      "outputs": [
        {
          "name": "",
          "type": "bytes32",
          "internalType": "bytes32"
        }
      ],
      "stateMutability": "view"
    },
    {
      "type": "function",
      "name": "fee",
      "inputs": [],
      "outputs": [
        {
          "name": "",
          "type": "uint64",
          "internalType": "uint64"
        }
      ],
      "stateMutability": "view"
    },
    {
      "type": "function",
      "name": "funding",
      "inputs": [],
      "outputs": [
        {
          "name": "",
          "type": "uint256",
          "internalType": "uint256"
        }
      ],
      "stateMutability": "view"
    },
    {
      "type": "function",
      "name": "getPendingFees",
      "inputs": [
        {
          "name": "provider",
          "type": "address",
          "internalType": "address"
        }
      ],
      "outputs": [
        {
          "name": "",
          "type": "uint256",
          "internalType": "uint256"
        }
      ],
      "stateMutability": "view"
    },
    {
      "type": "function",
      "name": "getSharePercentage",
      "inputs": [
        {
          "name": "provider",
          "type": "address",
          "internalType": "address"
        }
      ],
      "outputs": [
        {
          "name": "",
          "type": "uint256",
          "internalType": "uint256"
        }
      ],
      "stateMutability": "view"
    },
    {
      "type": "function",
      "name": "liquidityShares",
      "inputs": [
        {
          "name": "",
          "type": "address",
          "internalType": "address"
        }
      ],
      "outputs": [
        {
          "name": "",
          "type": "uint256",
          "internalType": "uint256"
        }
      ],
      "stateMutability": "view"
    },
    {
      "type": "function",
      "name": "onERC1155BatchReceived",
      "inputs": [
        {
          "name": "_operator",
          "type": "address",
          "internalType": "address"
        },
        {
          "name": "",
          "type": "address",
          "internalType": "address"
        },
        {
          "name": "",
          "type": "uint256[]",
          "internalType": "uint256[]"
        },
        {
          "name": "",
          "type": "uint256[]",
          "internalType": "uint256[]"
        },
        {
          "name": "",
          "type": "bytes",
          "internalType": "bytes"
        }
      ],
      "outputs": [
        {
          "name": "",
          "type": "bytes4",
          "internalType": "bytes4"
        }
      ],
      "stateMutability": "view"
    },
    {
      "type": "function",
      "name": "onERC1155Received",
      "inputs": [
        {
          "name": "operator",
          "type": "address",
          "internalType": "address"
        },
        {
          "name": "",
          "type": "address",
          "internalType": "address"
        },
        {
          "name": "",
          "type": "uint256",
          "internalType": "uint256"
        },
        {
          "name": "",
          "type": "uint256",
          "internalType": "uint256"
        },
        {
          "name": "",
          "type": "bytes",
          "internalType": "bytes"
        }
      ],
      "outputs": [
        {
          "name": "",
          "type": "bytes4",
          "internalType": "bytes4"
        }
      ],
      "stateMutability": "view"
    },
    {
      "type": "function",
      "name": "owner",
      "inputs": [],
      "outputs": [
        {
          "name": "",
          "type": "address",
          "internalType": "address"
        }
      ],
      "stateMutability": "view"
    },
    {
      "type": "function",
      "name": "pause",
      "inputs": [],
      "outputs": [],
      "stateMutability": "nonpayable"
    },
    {
      "type": "function",
      "name": "pmSystem",
      "inputs": [],
      "outputs": [
        {
          "name": "",
          "type": "address",
          "internalType": "contract ConditionalTokens"
        }
      ],
      "stateMutability": "view"
    },
    {
      "type": "function",
      "name": "redeemPositions",
      "inputs": [],
      "outputs": [],
      "stateMutability": "nonpayable"
    },
    {
      "type": "function",
      "name": "renounceOwnership",
      "inputs": [],
      "outputs": [],
      "stateMutability": "nonpayable"
    },
    {
      "type": "function",
      "name": "resume",
      "inputs": [],
      "outputs": [],
      "stateMutability": "nonpayable"
    },
    {
      "type": "function",
      "name": "stage",
      "inputs": [],
      "outputs": [
        {
          "name": "",
          "type": "uint8",
          "internalType": "enum MarketMaker.Stage"
        }
      ],
      "stateMutability": "view"
    },
    {
      "type": "function",
      "name": "totalShares",
      "inputs": [],
      "outputs": [
        {
          "name": "",
          "type": "uint256",
          "internalType": "uint256"
        }
      ],
      "stateMutability": "view"
    },
    {
      "type": "function",
      "name": "trade",
      "inputs": [
        {
          "name": "outcomeTokenAmounts",
          "type": "int256[]",
          "internalType": "int256[]"
        },
        {
          "name": "collateralLimit",
          "type": "int256",
          "internalType": "int256"
        }
      ],
      "outputs": [
        {
          "name": "netCost",
          "type": "int256",
          "internalType": "int256"
        }
      ],
      "stateMutability": "nonpayable"
    },
    {
      "type": "function",
      "name": "transferOwnership",
      "inputs": [
        {
          "name": "newOwner",
          "type": "address",
          "internalType": "address"
        }
      ],
      "outputs": [],
      "stateMutability": "nonpayable"
    },
    {
      "type": "function",
      "name": "whitelist",
      "inputs": [],
      "outputs": [
        {
          "name": "",
          "type": "address",
          "internalType": "contract Whitelist"
        }
      ],
      "stateMutability": "view"
    },
    {
      "type": "function",
      "name": "withdrawFees",
      "inputs": [],
      "outputs": [
        {
          "name": "userFees",
          "type": "uint256",
          "internalType": "uint256"
        }
      ],
      "stateMutability": "nonpayable"
    },
    {
      "type": "function",
      "name": "withdrawLiquidity",
      "inputs": [],
      "outputs": [
        {
          "name": "amount",
          "type": "uint256",
          "internalType": "uint256"
        }
      ],
      "stateMutability": "nonpayable"
    },
    {
      "type": "event",
      "name": "AMMClosed",
      "inputs": [],
      "anonymous": false
    },
    {
      "type": "event",
      "name": "AMMCreated",
      "inputs": [
        {
          "name": "initialFunding",
          "type": "uint256",
          "indexed": false,
          "internalType": "uint256"
        }
      ],
      "anonymous": false
    },
    {
      "type": "event",
      "name": "AMMFeeChanged",
      "inputs": [
        {
          "name": "newFee",
          "type": "uint64",
          "indexed": false,
          "internalType": "uint64"
        }
      ],
      "anonymous": false
    },
    {
      "type": "event",
      "name": "AMMFeeWithdrawal",
      "inputs": [
        {
          "name": "fees",
          "type": "uint256",
          "indexed": false,
          "internalType": "uint256"
        }
      ],
      "anonymous": false
    },
    {
      "type": "event",
      "name": "AMMFundingChanged",
      "inputs": [
        {
          "name": "fundingChange",
          "type": "int256",
          "indexed": false,
          "internalType": "int256"
        }
      ],
      "anonymous": false
    },
    {
      "type": "event",
      "name": "AMMOutcomeTokenTrade",
      "inputs": [
        {
          "name": "transactor",
          "type": "address",
          "indexed": true,
          "internalType": "address"
        },
        {
          "name": "outcomeTokenAmounts",
          "type": "int256[]",
          "indexed": false,
          "internalType": "int256[]"
        },
        {
          "name": "outcomeTokenNetCost",
          "type": "int256",
          "indexed": false,
          "internalType": "int256"
        },
        {
          "name": "marketFees",
          "type": "uint256",
          "indexed": false,
          "internalType": "uint256"
        }
      ],
      "anonymous": false
    },
    {
      "type": "event",
      "name": "AMMPaused",
      "inputs": [],
      "anonymous": false
    },
    {
      "type": "event",
      "name": "AMMResumed",
      "inputs": [],
      "anonymous": false
    },
    {
      "type": "event",
      "name": "FeesDistributed",
      "inputs": [
        {
          "name": "recipient",
          "type": "address",
          "indexed": true,
          "internalType": "address"
        },
        {
          "name": "amount",
          "type": "uint256",
          "indexed": false,
          "internalType": "uint256"
        }
      ],
      "anonymous": false
    },
    {
      "type": "event",
      "name": "LiquidityAdded",
      "inputs": [
        {
          "name": "provider",
          "type": "address",
          "indexed": true,
          "internalType": "address"
        },
        {
          "name": "amount",
          "type": "uint256",
          "indexed": false,
          "internalType": "uint256"
        },
        {
          "name": "shares",
          "type": "uint256",
          "indexed": false,
          "internalType": "uint256"
        }
      ],
      "anonymous": false
    },
    {
      "type": "event",
      "name": "LiquidityRedeemed",
      "inputs": [
        {
          "name": "totalCollateral",
          "type": "uint256",
          "indexed": false,
          "internalType": "uint256"
        }
      ],
      "anonymous": false
    },
    {
      "type": "event",
      "name": "LiquidityWithdrawn",
      "inputs": [
        {
          "name": "provider",
          "type": "address",
          "indexed": true,
          "internalType": "address"
        },
        {
          "name": "amount",
          "type": "uint256",
          "indexed": false,
          "internalType": "uint256"
        },
        {
          "name": "shares",
          "type": "uint256",
          "indexed": false,
          "internalType": "uint256"
        }
      ],
      "anonymous": false
    },
    {
      "type": "event",
      "name": "OwnershipTransferred",
      "inputs": [
        {
          "name": "previousOwner",
          "type": "address",
          "indexed": true,
          "internalType": "address"
        },
        {
          "name": "newOwner",
          "type": "address",
          "indexed": true,
          "internalType": "address"
        }
      ],
      "anonymous": false
    }
  ],
  "bytecode": {
    "object": "0x608060405234801561001057600080fd5b5061001a3361001f565b61006f565b600080546001600160a01b038381166001600160a01b0319831681178455604051919092169283917f8be0079c531659141344cd1fd0a4f28419497f9722a3daafe3b4186f6b6457e09190a35050565b613231806200007f6000396000f3fe608060405234801561001057600080fd5b50600436106101f05760003560e01c80639db4aa041161010f578063cb4c86b7116100a2578063e7f3378911610071578063e7f3378914610409578063f23a6e611461041c578063f2fde38b1461042f578063fbde47f61461044257600080fd5b8063cb4c86b7146103b9578063d8c55af7146103c2578063dd83bad2146103d5578063ddca3f43146103de57600080fd5b8063b2016bd4116100de578063b2016bd41461034d578063b20f8e7f14610360578063bc197c8114610373578063c040e6b81461039f57600080fd5b80639db4aa04146102f4578063a4bf34ba14610314578063b001150914610327578063b00de0691461033a57600080fd5b80635c98dbca116101875780638456cb59116101565780638456cb59146102b057806387f39a5c146102b85780638da5cb5b146102cb57806393e59dc1146102dc57600080fd5b80635c98dbca14610285578063715018a61461028d578063782d085b146102955780637ea382c1146102a857600080fd5b806343d726d6116101c357806343d726d614610259578063476343ee1461026157806351c6590a14610269578063587f5ed71461027c57600080fd5b8063046f7da2146101f557806305be8b2c146101ff57806315bd76111461022f5780633a98ef3914610250575b600080fd5b6101fd610451565b005b600154610212906001600160a01b031681565b6040516001600160a01b0390911681526020015b60405180910390f35b61024261023d366004612a45565b6104de565b604051908152602001610226565b610242600c5481565b6101fd610b08565b610242610bfd565b610242610277366004612a89565b610e15565b610242600d5481565b6101fd61103f565b6101fd6112b9565b6102426102a3366004612aa2565b6112ef565b610242611604565b6101fd611904565b6101fd6102c6366004612a89565b61198b565b6000546001600160a01b0316610212565b6007546102129061010090046001600160a01b031681565b610242610302366004612afa565b600b6020526000908152604090205481565b610242610322366004612afa565b611dd4565b610242610335366004612a89565b611e50565b610242610348366004612afa565b611e73565b600254610212906001600160a01b031681565b61024261036e366004612b15565b611eb0565b610386610381366004612bc4565b612099565b6040516001600160e01b03199091168152602001610226565b6007546103ac9060ff1681565b6040516102269190612cb2565b61024260065481565b6102426103d0366004612a89565b6120ca565b61024260045481565b6005546103f1906001600160401b031681565b6040516001600160401b039091168152602001610226565b6101fd610417366004612cc5565b6120eb565b61038661042a366004612cee565b61218f565b6101fd61043d366004612afa565b6121be565b6103f1670de0b6b3a764000081565b6000546001600160a01b031633146104845760405162461bcd60e51b815260040161047b90612d65565b60405180910390fd5b60018060075460ff16600281111561049e5761049e612c7e565b146104a857600080fd5b6007805460ff191690556040517fb0cf596e1402e50b88a6d1097918e48922e4a2878ece11d7bb51b5d81cf6c17890600090a150565b6000808060075460ff1660028111156104f9576104f9612c7e565b1461050357600080fd5b60075461010090046001600160a01b0316158061058b5750600754604051633af32abf60e01b81523360048201526101009091046001600160a01b031690633af32abf90602401602060405180830381865afa158015610567573d6000803e3d6000fd5b505050506040513d601f19601f8201168201806040525081019061058b9190612d9a565b6105ed5760405162461bcd60e51b815260206004820152602d60248201527f6f6e6c792077686974656c6973746564207573657273206d61792063616c6c2060448201526c3a3434b990333ab731ba34b7b760991b606482015260840161047b565b6004548451146105fc57600080fd5b6000610607856112ef565b90506000808212156106265761061f61033583612dd2565b9050610632565b61062f82611e50565b90505b600081121561064057600080fd5b61064a8183612def565b935084158061066457506000851380156106645750848413155b8061067a575060008512801561067a5750848412155b61068357600080fd5b6000821315610799576002546040516323b872dd60e01b8152336004820152306024820152604481018690526001600160a01b03909116906323b872dd906064016020604051808303816000875af11580156106e3573d6000803e3d6000fd5b505050506040513d601f19601f820116820180604052508101906107079190612d9a565b8015610787575060025460015460405163095ea7b360e01b81526001600160a01b0391821660048201526024810185905291169063095ea7b3906044016020604051808303816000875af1158015610763573d6000803e3d6000fd5b505050506040513d601f19601f820116820180604052508101906107879190612d9a565b61079057600080fd5b61079982612259565b6000806004546001600160401b038111156107b6576107b6612995565b6040519080825280602002602001820160405280156107df578160200160208202803683370190505b50905060005b60045481101561086957600089828151811061080357610803612e30565b60200260200101511215610857576001925088818151811061082757610827612e30565b602002602001015161083890612dd2565b82828151811061084a5761084a612e30565b6020026020010181815250505b8061086181612e46565b9150506107e5565b5081156108da57600154604051631759616b60e11b81526001600160a01b0390911690632eb2c2d6906108a79033903090600a908790600401612e9c565b600060405180830381600087803b1580156108c157600080fd5b505af11580156108d5573d6000803e3d6000fd5b505050505b60008412156108f4576108f46108ef85612dd2565b612546565b82600d60008282546109069190612f27565b909155505060405133907fda7ff5556ce7ecfcf06296f03426e8c02a7305b85cfd88816a32f7f49690517790610941908b9088908890612f3f565b60405180910390a26000915060005b6004548110156109f057600089828151811061096e5761096e612e30565b602002602001015113156109bd576001925088818151811061099257610992612e30565b60200260200101518282815181106109ac576109ac612e30565b6020026020010181815250506109de565b60008282815181106109d1576109d1612e30565b6020026020010181815250505b806109e881612e46565b915050610950565b508115610a6157600154604051631759616b60e11b81526001600160a01b0390911690632eb2c2d690610a2e9030903390600a908790600401612e9c565b600060405180830381600087803b158015610a4857600080fd5b505af1158015610a5c573d6000803e3d6000fd5b505050505b6000861215610afd576002546001600160a01b031663a9059cbb33610a8589612dd2565b6040516001600160e01b031960e085901b1681526001600160a01b03909216600483015260248201526044016020604051808303816000875af1158015610ad0573d6000803e3d6000fd5b505050506040513d601f19601f82011682018060405250810190610af49190612d9a565b610afd57600080fd5b505050505092915050565b6000546001600160a01b03163314610b325760405162461bcd60e51b815260040161047b90612d65565b600060075460ff166002811115610b4b57610b4b612c7e565b1480610b6d5750600160075460ff166002811115610b6b57610b6b612c7e565b145b610bc55760405162461bcd60e51b815260206004820152602360248201527f54686973204d61726b65742068617320616c7265616479206265656e20636c6f6044820152621cd95960ea1b606482015260840161047b565b6007805460ff191660021790556040517f6e18b1b14477b5922c6efa82206ed0e3b73c2500e8d1528c9a6e17554ea1255490600090a1565b336000908152600b6020526040812054610c4b5760405162461bcd60e51b815260206004820152600f60248201526e1b9bc81cda185c995cc81bdddb9959608a1b604482015260640161047b565b6000600c5411610c8f5760405162461bcd60e51b815260206004820152600f60248201526e1b9bc81cda185c995cc8195e1a5cdd608a1b604482015260640161047b565b6000600d5411610cd75760405162461bcd60e51b81526020600482015260136024820152726e6f206665657320746f20776974686472617760681b604482015260640161047b565b600c54336000908152600b6020526040902054600d54610cf79190612f8c565b610d019190612fc1565b905060008111610d485760405162461bcd60e51b81526020600482015260126024820152713737903332b2b9903337b91031b0b63632b960711b604482015260640161047b565b80600d6000828254610d5a9190612fd5565b909155505060025460405163a9059cbb60e01b8152336004820152602481018390526001600160a01b039091169063a9059cbb906044016020604051808303816000875af1158015610db0573d6000803e3d6000fd5b505050506040513d601f19601f82011682018060405250810190610dd49190612d9a565b610ddd57600080fd5b60405181815233907f63be20cc905d5ba0cf65db405c4999f99f2575e521875f13a8009d6eed7a09d99060200160405180910390a290565b6000808060075460ff166002811115610e3057610e30612c7e565b14610e3a57600080fd5b60008311610e8a5760405162461bcd60e51b815260206004820152601760248201527f616d6f756e74206d75737420626520706f736974697665000000000000000000604482015260640161047b565b6002546040516323b872dd60e01b8152336004820152306024820152604481018590526001600160a01b03909116906323b872dd906064016020604051808303816000875af1158015610ee1573d6000803e3d6000fd5b505050506040513d601f19601f82011682018060405250810190610f059190612d9a565b8015610f85575060025460015460405163095ea7b360e01b81526001600160a01b0391821660048201526024810186905291169063095ea7b3906044016020604051808303816000875af1158015610f61573d6000803e3d6000fd5b505050506040513d601f19601f82011682018060405250810190610f859190612d9a565b610f8e57600080fd5b610f9783612259565b610fa383600654612685565b336000908152600b6020526040812080549294508492909190610fc7908490612f27565b9250508190555081600c6000828254610fe09190612f27565b925050819055508260066000828254610ff99190612f27565b9091555050604080518481526020810184905233917fac1d76749e5447b7b16f5ab61447e1bd502f3bb4807af3b28e620d1700a6ee45910160405180910390a250919050565b60028060075460ff16600281111561105957611059612c7e565b1461106357600080fd5b60006004546001600160401b0381111561107f5761107f612995565b6040519080825280602002602001820160405280156110a8578160200160208202803683370190505b50905060005b6004548110156110ec57806001901b8282815181106110cf576110cf612e30565b6020908102919091010152806110e481612e46565b9150506110ae565b506003545b80156111fd5760006003611106600184612fd5565b8154811061111657611116612e30565b906000526020600020015490506000600183111561117957600961113b600185612fd5565b8154811061114b5761114b612e30565b9060005260206000200160008154811061116757611167612e30565b9060005260206000200154905061117d565b5060005b600154600254604051626dc0df60e21b81526001600160a01b03928316926301b7037c926111b692911690859087908a90600401612fec565b600060405180830381600087803b1580156111d057600080fd5b505af11580156111e4573d6000803e3d6000fd5b50505050505080806111f590613019565b9150506110f1565b50600d546002546040516370a0823160e01b8152306004820152600092916001600160a01b0316906370a0823190602401602060405180830381865afa15801561124b573d6000803e3d6000fd5b505050506040513d601f19601f8201168201806040525081019061126f9190613030565b6112799190612fd5565b90507f9e32fb182e0a1cb5fe6aa98b022309521951ff18b3369557927c2229aa2f73c3816040516112ac91815260200190565b60405180910390a1505050565b6000546001600160a01b031633146112e35760405162461bcd60e51b815260040161047b90612d65565b6112ed60006126c2565b565b600060045482511461130057600080fd5b60006004546001600160401b0381111561131c5761131c612995565b604051908082528060200260200182016040528015611345578160200160208202803683370190505b50905060005b600454811015611444576001546000906001600160a01b031662fdd58e3061137285612712565b6040516001600160e01b031960e085901b1681526001600160a01b0390921660048301526024820152604401602060405180830381865afa1580156113bb573d6000803e3d6000fd5b505050506040513d601f19601f820116820180604052508101906113df9190613030565b905060008112156113ef57600080fd5b8085838151811061140257611402612e30565b60200260200101516114149190613049565b83838151811061142657611426612e30565b6020908102919091010152508061143c81612e46565b91505061134b565b50600073__$df84ae5fb8ff99280ca9db68327ddbeb18$__63137bf798600160401b6004546114739190612f8c565b60016040518363ffffffff1660e01b8152600401611492929190613088565b602060405180830381865af41580156114af573d6000803e3d6000fd5b505050506040513d601f19601f820116820180604052508101906114d39190613030565b90506000806114e6838560006001612739565b5060405163026f7ef360e31b8152919350915073__$df84ae5fb8ff99280ca9db68327ddbeb18$__9063137bf79890611526908590600190600401613088565b602060405180830381865af4158015611543573d6000803e3d6000fd5b505050506040513d601f19601f820116820180604052508101906115679190613030565b94506115738186612def565b60065490955083611588600160401b886130a5565b611592919061312a565b61159c91906130a5565b94506000851315806115c5575084600160401b6115b9818361312a565b6115c391906130a5565b145b156115df576115d8600160401b8661312a565b94506115fb565b6115ed600160401b8661312a565b6115f8906001612def565b94505b50505050919050565b600060028060075460ff16600281111561162057611620612c7e565b1461162a57600080fd5b336000908152600b60205260409020546116785760405162461bcd60e51b815260206004820152600f60248201526e1b9bc81cda185c995cc81bdddb9959608a1b604482015260640161047b565b6000600c54116116bc5760405162461bcd60e51b815260206004820152600f60248201526e1b9bc81cda185c995cc8195e1a5cdd608a1b604482015260640161047b565b6002546040516370a0823160e01b81523060048201526000916001600160a01b0316906370a0823190602401602060405180830381865afa158015611705573d6000803e3d6000fd5b505050506040513d601f19601f820116820180604052508101906117299190613030565b9050600d54811161177c5760405162461bcd60e51b815260206004820152601860248201527f6e6f206c697175696469747920746f2077697468647261770000000000000000604482015260640161047b565b6000600d548261178c9190612fd5565b600c54336000908152600b6020526040902054919250906117ad9083612f8c565b6117b79190612fc1565b9350600084116118095760405162461bcd60e51b815260206004820152601760248201527f6e6f206c697175696469747920666f722063616c6c6572000000000000000000604482015260640161047b565b336000908152600b6020526040812054600c80549192839261182c908490612fd5565b9091555050336000818152600b602052604080822091909155600254905163a9059cbb60e01b81526004810192909252602482018790526001600160a01b03169063a9059cbb906044016020604051808303816000875af1158015611895573d6000803e3d6000fd5b505050506040513d601f19601f820116820180604052508101906118b99190612d9a565b6118c257600080fd5b604080518681526020810183905233917fb195a67e698c5700e4f48f7b7748dda3a206ee2767ef024b61a26d7b17b2d63a910160405180910390a25050505090565b6000546001600160a01b0316331461192e5760405162461bcd60e51b815260040161047b90612d65565b60008060075460ff16600281111561194857611948612c7e565b1461195257600080fd5b6007805460ff191660011790556040517fbb11914e7a395f00cf0920fe85f50088bd8d7681529fb0bd3c27ccb45a8bcd8f90600090a150565b6000546001600160a01b031633146119b55760405162461bcd60e51b815260040161047b90612d65565b60018060075460ff1660028111156119cf576119cf612c7e565b146119d957600080fd5b81611a265760405162461bcd60e51b815260206004820152601f60248201527f66756e64696e67206368616e6765206d757374206265206e6f6e2d7a65726f00604482015260640161047b565b6000821315611bd2576002546040516323b872dd60e01b8152336004820152306024820152604481018490526001600160a01b03909116906323b872dd906064016020604051808303816000875af1158015611a86573d6000803e3d6000fd5b505050506040513d601f19601f82011682018060405250810190611aaa9190612d9a565b8015611b2a575060025460015460405163095ea7b360e01b81526001600160a01b0391821660048201526024810185905291169063095ea7b3906044016020604051808303816000875af1158015611b06573d6000803e3d6000fd5b505050506040513d601f19601f82011682018060405250810190611b2a9190612d9a565b611b3357600080fd5b611b3c82612259565b6000611b4a83600654612685565b336000908152600b6020526040812080549293508392909190611b6e908490612f27565b9250508190555080600c6000828254611b879190612f27565b9091555050600654611b9a908490612f27565b6006556040518381527fc55e9a33fb8b1de5318b5c7b96a32937e54006c82000b2c468ed1fb9f73f67999060200160405180910390a1505b6000821215611dd0576000611be683612dd2565b9050600654811115611c315760405162461bcd60e51b8152602060048201526014602482015273696e73756666696369656e742066756e64696e6760601b604482015260640161047b565b6000600654600c5483611c449190612f8c565b611c4e9190612fc1565b336000908152600b6020526040902054909150811115611ca65760405162461bcd60e51b8152602060048201526013602482015272696e73756666696369656e742073686172657360681b604482015260640161047b565b611caf82612546565b81600654611cbd9190612fd5565b600655336000908152600b602052604081208054839290611cdf908490612fd5565b9250508190555080600c6000828254611cf89190612fd5565b90915550506002546001600160a01b031663a9059cbb611d206000546001600160a01b031690565b6040516001600160e01b031960e084901b1681526001600160a01b039091166004820152602481018590526044016020604051808303816000875af1158015611d6d573d6000803e3d6000fd5b505050506040513d601f19601f82011682018060405250810190611d919190612d9a565b611d9a57600080fd5b6040518481527fc55e9a33fb8b1de5318b5c7b96a32937e54006c82000b2c468ed1fb9f73f67999060200160405180910390a150505b5050565b6001600160a01b0381166000908152600b6020526040812054611df957506000919050565b600c54611e0857506000919050565b600d54611e1757506000919050565b600c546001600160a01b0383166000908152600b6020526040902054600d54611e409190612f8c565b611e4a9190612fc1565b92915050565b600554600090670de0b6b3a764000090611e40906001600160401b031684612f8c565b6000600c5460001415611e8857506000919050565b600c546001600160a01b0383166000908152600b6020526040902054611e4090612710612f8c565b6000806004546001600160401b03811115611ecd57611ecd612995565b604051908082528060200260200182016040528015611ef6578160200160208202803683370190505b50905060005b600454811015611fda576001546000906001600160a01b031662fdd58e30611f2385612712565b6040516001600160e01b031960e085901b1681526001600160a01b0390921660048301526024820152604401602060405180830381865afa158015611f6c573d6000803e3d6000fd5b505050506040513d601f19601f82011682018060405250810190611f909190613030565b611f9990612dd2565b90506000811315611fa957600080fd5b80838381518110611fbc57611fbc612e30565b60209081029190910101525080611fd281612e46565b915050611efc565b50600073__$df84ae5fb8ff99280ca9db68327ddbeb18$__63137bf798600160401b84516120089190612f8c565b60026040518363ffffffff1660e01b8152600401612027929190613088565b602060405180830381865af4158015612044573d6000803e3d6000fd5b505050506040513d601f19601f820116820180604052508101906120689190613030565b905060008061207a8385886002612739565b9250509150600160401b8261208f9190612fc1565b6115f89082612fc1565b60006001600160a01b0389163014156120ba575063bc197c8160e01b6120be565b5060005b98975050505050505050565b600381815481106120da57600080fd5b600091825260209091200154905081565b6000546001600160a01b031633146121155760405162461bcd60e51b815260040161047b90612d65565b60018060075460ff16600281111561212f5761212f612c7e565b1461213957600080fd5b6005805467ffffffffffffffff19166001600160401b0384169081179091556040519081527f43acfe4f4a14c012959016586aee3b318a0a30e17bb8edae05a58d46c80b41999060200160405180910390a15050565b60006001600160a01b0387163014156121b0575063f23a6e6160e01b6121b4565b5060005b9695505050505050565b6000546001600160a01b031633146121e85760405162461bcd60e51b815260040161047b90612d65565b6001600160a01b03811661224d5760405162461bcd60e51b815260206004820152602660248201527f4f776e61626c653a206e6577206f776e657220697320746865207a65726f206160448201526564647265737360d01b606482015260840161047b565b612256816126c2565b50565b6003546122635750565b600854600354146122b65760405162461bcd60e51b815260206004820152601760248201527f696e76616c696420636f6e646974696f6e207365747570000000000000000000604482015260640161047b565b600954600354146123095760405162461bcd60e51b815260206004820152601860248201527f696e76616c696420636f6c6c656374696f6e2073657475700000000000000000604482015260640161047b565b6003545b8015611dd0578061231d81613019565b91505060006008828154811061233557612335612e30565b906000526020600020015411801561236c57506101006008828154811061235e5761235e612e30565b906000526020600020015411155b6123b05760405162461bcd60e51b81526020600482015260156024820152741a5b9d985b1a59081bdd5d18dbdb594818dbdd5b9d605a1b604482015260640161047b565b60006123d8600883815481106123c8576123c8612e30565b906000526020600020015461290a565b90506000600983815481106123ef576123ef612e30565b6000918252602090912001541161243c5760405162461bcd60e51b81526020600482015260116024820152706e6f20636f6c6c656374696f6e2069647360781b604482015260640161047b565b60005b6009838154811061245257612452612e30565b60009182526020909120015481101561253f57600154600254600980546001600160a01b03938416936372ce4275931691908790811061249457612494612e30565b9060005260206000200184815481106124af576124af612e30565b9060005260206000200154600387815481106124cd576124cd612e30565b906000526020600020015486896040518663ffffffff1660e01b81526004016124fa959493929190613158565b600060405180830381600087803b15801561251457600080fd5b505af1158015612528573d6000803e3d6000fd5b50505050808061253790612e46565b91505061243f565b505061230d565b60005b600354811015611dd057600061256b600883815481106123c8576123c8612e30565b905060005b6009838154811061258357612583612e30565b60009182526020909120015481101561267057600154600254600980546001600160a01b0393841693639e7212ad93169190879081106125c5576125c5612e30565b9060005260206000200184815481106125e0576125e0612e30565b9060005260206000200154600387815481106125fe576125fe612e30565b906000526020600020015486896040518663ffffffff1660e01b815260040161262b959493929190613158565b600060405180830381600087803b15801561264557600080fd5b505af1158015612659573d6000803e3d6000fd5b50505050808061266890612e46565b915050612570565b5050808061267d90612e46565b915050612549565b6000600c5460001480612696575081155b156126a2575081611e4a565b81600c54846126b19190612f8c565b6126bb9190612fc1565b9392505050565b600080546001600160a01b038381166001600160a01b0319831681178455604051919092169283917f8be0079c531659141344cd1fd0a4f28419497f9722a3daafe3b4186f6b6457e09190a35050565b6000600a828154811061272757612727612e30565b90600052602060002001549050919050565b60008060008087121580156127515750600060065412155b61275a57600080fd5b6040516333304e0560e21b815273__$df84ae5fb8ff99280ca9db68327ddbeb18$__9063ccc1381490612791908990600401613197565b602060405180830381865af41580156127ae573d6000803e3d6000fd5b505050506040513d601f19601f820116820180604052508101906127d29190613030565b6006549092506127e288846130a5565b6127ec919061312a565b915061280168b8000000000000000083613049565b91506000805b87518160ff1610156128fe5773__$df84ae5fb8ff99280ca9db68327ddbeb18$__631d580123856006548c8c8660ff168151811061284757612847612e30565b602002602001015161285991906130a5565b612863919061312a565b61286d9190613049565b886040518363ffffffff1660e01b815260040161288b929190613088565b602060405180830381865af41580156128a8573d6000803e3d6000fd5b505050506040513d601f19601f820116820180604052508101906128cc9190613030565b91508660ff168160ff1614156128e0578192505b6128ea8286612f27565b9450806128f6816131db565b915050612807565b50509450945094915050565b6060816001600160401b0381111561292457612924612995565b60405190808252806020026020018201604052801561294d578160200160208202803683370190505b50905060005b8281101561298f57806001901b82828151811061297257612972612e30565b60209081029190910101528061298781612e46565b915050612953565b50919050565b634e487b7160e01b600052604160045260246000fd5b600082601f8301126129bc57600080fd5b813560206001600160401b03808311156129d8576129d8612995565b8260051b604051601f19603f830116810181811084821117156129fd576129fd612995565b604052938452858101830193838101925087851115612a1b57600080fd5b83870191505b84821015612a3a57813583529183019190830190612a21565b979650505050505050565b60008060408385031215612a5857600080fd5b82356001600160401b03811115612a6e57600080fd5b612a7a858286016129ab565b95602094909401359450505050565b600060208284031215612a9b57600080fd5b5035919050565b600060208284031215612ab457600080fd5b81356001600160401b03811115612aca57600080fd5b612ad6848285016129ab565b949350505050565b80356001600160a01b0381168114612af557600080fd5b919050565b600060208284031215612b0c57600080fd5b6126bb82612ade565b600060208284031215612b2757600080fd5b813560ff811681146126bb57600080fd5b60008083601f840112612b4a57600080fd5b5081356001600160401b03811115612b6157600080fd5b6020830191508360208260051b8501011115612b7c57600080fd5b9250929050565b60008083601f840112612b9557600080fd5b5081356001600160401b03811115612bac57600080fd5b602083019150836020828501011115612b7c57600080fd5b60008060008060008060008060a0898b031215612be057600080fd5b612be989612ade565b9750612bf760208a01612ade565b965060408901356001600160401b0380821115612c1357600080fd5b612c1f8c838d01612b38565b909850965060608b0135915080821115612c3857600080fd5b612c448c838d01612b38565b909650945060808b0135915080821115612c5d57600080fd5b50612c6a8b828c01612b83565b999c989b5096995094979396929594505050565b634e487b7160e01b600052602160045260246000fd5b6003811061225657634e487b7160e01b600052602160045260246000fd5b60208101612cbf83612c94565b91905290565b600060208284031215612cd757600080fd5b81356001600160401b03811681146126bb57600080fd5b60008060008060008060a08789031215612d0757600080fd5b612d1087612ade565b9550612d1e60208801612ade565b9450604087013593506060870135925060808701356001600160401b03811115612d4757600080fd5b612d5389828a01612b83565b979a9699509497509295939492505050565b6020808252818101527f4f776e61626c653a2063616c6c6572206973206e6f7420746865206f776e6572604082015260600190565b600060208284031215612dac57600080fd5b815180151581146126bb57600080fd5b634e487b7160e01b600052601160045260246000fd5b6000600160ff1b821415612de857612de8612dbc565b5060000390565b600080821280156001600160ff1b0384900385131615612e1157612e11612dbc565b600160ff1b8390038412811615612e2a57612e2a612dbc565b50500190565b634e487b7160e01b600052603260045260246000fd5b6000600019821415612e5a57612e5a612dbc565b5060010190565b600081518084526020808501945080840160005b83811015612e9157815187529582019590820190600101612e75565b509495945050505050565b6001600160a01b038581168252841660208083019190915260a060408301819052845490830181905260008581528281209092909160c085019190845b81811015612ef557845484526001948501949383019301612ed9565b50508482036060860152612f098287612e61565b85810360809096019590955260008552909301979650505050505050565b60008219821115612f3a57612f3a612dbc565b500190565b606080825284519082018190526000906020906080840190828801845b82811015612f7857815184529284019290840190600101612f5c565b505050908301949094525060400152919050565b6000816000190483118215151615612fa657612fa6612dbc565b500290565b634e487b7160e01b600052601260045260246000fd5b600082612fd057612fd0612fab565b500490565b600082821015612fe757612fe7612dbc565b500390565b60018060a01b03851681528360208201528260408201526080606082015260006121b46080830184612e61565b60008161302857613028612dbc565b506000190190565b60006020828403121561304257600080fd5b5051919050565b60008083128015600160ff1b85018412161561306757613067612dbc565b6001600160ff1b038401831381161561308257613082612dbc565b50500390565b8281526040810161309883612c94565b8260208301529392505050565b60006001600160ff1b03818413828413808216868404861116156130cb576130cb612dbc565b600160ff1b60008712828116878305891216156130ea576130ea612dbc565b6000871292508782058712848416161561310657613106612dbc565b8785058712818416161561311c5761311c612dbc565b505050929093029392505050565b60008261313957613139612fab565b600160ff1b82146000198414161561315357613153612dbc565b500590565b60018060a01b038616815284602082015283604082015260a06060820152600061318560a0830185612e61565b90508260808301529695505050505050565b6020808252825182820181905260009190848201906040850190845b818110156131cf578351835292840192918401916001016131b3565b50909695505050505050565b600060ff821660ff8114156131f2576131f2612dbc565b6001019291505056fea2646970667358221220429a3cfd6b5e7c9bfa261d25faafd219ec2f54a039cbb6dd3d795e9fdf83152964736f6c634300080a0033",
    "linkReferences": {
      "contracts/Fixed192x64Math.sol": {
        "Fixed192x64Math": [
          {
            "start": 5320,
            "length": 20
          },
          {
            "start": 5498,
            "length": 20
          },
          {
            "start": 8286,
            "length": 20
          },
          {
            "start": 10216,
            "length": 20
          },
          {
            "start": 10388,
            "length": 20
          }
        ]
      }
    }
  },
  "methodIdentifiers": {
    "FEE_RANGE()": "fbde47f6",
    "accumulatedFees()": "587f5ed7",
    "addLiquidity(uint256)": "51c6590a",
    "atomicOutcomeSlotCount()": "dd83bad2",
    "calcMarginalPrice(uint8)": "b20f8e7f",
    "calcMarketFee(uint256)": "b0011509",
    "calcNetCost(int256[])": "782d085b",
    "changeFee(uint64)": "e7f33789",
    "changeFunding(int256)": "87f39a5c",
    "close()": "43d726d6",
    "collateralToken()": "b2016bd4",
    "conditionIds(uint256)": "d8c55af7",
    "fee()": "ddca3f43",
    "funding()": "cb4c86b7",
    "getPendingFees(address)": "a4bf34ba",
    "getSharePercentage(address)": "b00de069",
    "liquidityShares(address)": "9db4aa04",
    "onERC1155BatchReceived(address,address,uint256[],uint256[],bytes)": "bc197c81",
    "onERC1155Received(address,address,uint256,uint256,bytes)": "f23a6e61",
    "owner()": "8da5cb5b",
    "pause()": "8456cb59",
    "pmSystem()": "05be8b2c",
    "redeemPositions()": "5c98dbca",
    "renounceOwnership()": "715018a6",
    "resume()": "046f7da2",
    "stage()": "c040e6b8",
    "totalShares()": "3a98ef39",
    "trade(int256[],int256)": "15bd7611",
    "transferOwnership(address)": "f2fde38b",
    "whitelist()": "93e59dc1",
    "withdrawFees()": "476343ee",
    "withdrawLiquidity()": "7ea382c1"
  },
  "id": 9
}