{
  "abi": [
    {
      "type": "constructor",
      "inputs": [
        {
          "name": "_ctf",
          "type": "address",
          "internalType": "address"
        },
        {
          "name": "_finder",
          "type": "address",
          "internalType": "address"
        },
        {
          "name": "_oo",
          "type": "address",
          "internalType": "address"
        }
      ],
      "stateMutability": "nonpayable"
    },
    {
      "type": "function",
      "name": "MAX_ANCILLARY_DATA",
      "inputs": [],
      "outputs": [
        {
          "name": "",
          "type": "uint256",
          "internalType": "uint256"
        }
      ],
      "stateMutability": "view"
    },
    {
      "type": "function",
      "name": "SAFETY_PERIOD",
      "inputs": [],
      "outputs": [
        {
          "name": "",
          "type": "uint256",
          "internalType": "uint256"
        }
      ],
      "stateMutability": "view"
    },
    {
      "type": "function",
      "name": "YES_OR_NO_IDENTIFIER",
      "inputs": [],
      "outputs": [
        {
          "name": "",
          "type": "bytes32",
          "internalType": "bytes32"
        }
      ],
      "stateMutability": "view"
    },
    {
      "type": "function",
      "name": "addAdmin",
      "inputs": [
        {
          "name": "admin",
          "type": "address",
          "internalType": "address"
        }
      ],
      "outputs": [],
      "stateMutability": "nonpayable"
    },
    {
      "type": "function",
      "name": "admins",
      "inputs": [
        {
          "name": "",
          "type": "address",
          "internalType": "address"
        }
      ],
      "outputs": [
        {
          "name": "",
          "type": "uint256",
          "internalType": "uint256"
        }
      ],
      "stateMutability": "view"
    },
    {
      "type": "function",
      "name": "collateralWhitelist",
      "inputs": [],
      "outputs": [
        {
          "name": "",
          "type": "address",
          "internalType": "contract IAddressWhitelist"
        }
      ],
      "stateMutability": "view"
    },
    {
      "type": "function",
      "name": "ctf",
      "inputs": [],
      "outputs": [
        {
          "name": "",
          "type": "address",
          "internalType": "contract IConditionalTokens"
        }
      ],
      "stateMutability": "view"
    },
    {
      "type": "function",
      "name": "flag",
      "inputs": [
        {
          "name": "questionID",
          "type": "bytes32",
          "internalType": "bytes32"
        }
      ],
      "outputs": [],
      "stateMutability": "nonpayable"
    },
    {
      "type": "function",
      "name": "getExpectedPayouts",
      "inputs": [
        {
          "name": "questionID",
          "type": "bytes32",
          "internalType": "bytes32"
        }
      ],
      "outputs": [
        {
          "name": "",
          "type": "uint256[]",
          "internalType": "uint256[]"
        }
      ],
      "stateMutability": "view"
    },
    {
      "type": "function",
      "name": "getLatestUpdate",
      "inputs": [
        {
          "name": "questionID",
          "type": "bytes32",
          "internalType": "bytes32"
        },
        {
          "name": "owner",
          "type": "address",
          "internalType": "address"
        }
      ],
      "outputs": [
        {
          "name": "",
          "type": "tuple",
          "internalType": "struct AncillaryDataUpdate",
          "components": [
            {
              "name": "timestamp",
              "type": "uint256",
              "internalType": "uint256"
            },
            {
              "name": "update",
              "type": "bytes",
              "internalType": "bytes"
            }
          ]
        }
      ],
      "stateMutability": "view"
    },
    {
      "type": "function",
      "name": "getQuestion",
      "inputs": [
        {
          "name": "questionID",
          "type": "bytes32",
          "internalType": "bytes32"
        }
      ],
      "outputs": [
        {
          "name": "",
          "type": "tuple",
          "internalType": "struct QuestionData",
          "components": [
            {
              "name": "requestTimestamp",
              "type": "uint256",
              "internalType": "uint256"
            },
            {
              "name": "reward",
              "type": "uint256",
              "internalType": "uint256"
            },
            {
              "name": "proposalBond",
              "type": "uint256",
              "internalType": "uint256"
            },
            {
              "name": "liveness",
              "type": "uint256",
              "internalType": "uint256"
            },
            {
              "name": "manualResolutionTimestamp",
              "type": "uint256",
              "internalType": "uint256"
            },
            {
              "name": "resolved",
              "type": "bool",
              "internalType": "bool"
            },
            {
              "name": "paused",
              "type": "bool",
              "internalType": "bool"
            },
            {
              "name": "reset",
              "type": "bool",
              "internalType": "bool"
            },
            {
              "name": "refund",
              "type": "bool",
              "internalType": "bool"
            },
            {
              "name": "rewardToken",
              "type": "address",
              "internalType": "address"
            },
            {
              "name": "creator",
              "type": "address",
              "internalType": "address"
            },
            {
              "name": "ancillaryData",
              "type": "bytes",
              "internalType": "bytes"
            }
          ]
        }
      ],
      "stateMutability": "view"
    },
    {
      "type": "function",
      "name": "getUpdates",
      "inputs": [
        {
          "name": "questionID",
          "type": "bytes32",
          "internalType": "bytes32"
        },
        {
          "name": "owner",
          "type": "address",
          "internalType": "address"
        }
      ],
      "outputs": [
        {
          "name": "",
          "type": "tuple[]",
          "internalType": "struct AncillaryDataUpdate[]",
          "components": [
            {
              "name": "timestamp",
              "type": "uint256",
              "internalType": "uint256"
            },
            {
              "name": "update",
              "type": "bytes",
              "internalType": "bytes"
            }
          ]
        }
      ],
      "stateMutability": "view"
    },
    {
      "type": "function",
      "name": "initialize",
      "inputs": [
        {
          "name": "ancillaryData",
          "type": "bytes",
          "internalType": "bytes"
        },
        {
          "name": "rewardToken",
          "type": "address",
          "internalType": "address"
        },
        {
          "name": "reward",
          "type": "uint256",
          "internalType": "uint256"
        },
        {
          "name": "proposalBond",
          "type": "uint256",
          "internalType": "uint256"
        },
        {
          "name": "liveness",
          "type": "uint256",
          "internalType": "uint256"
        }
      ],
      "outputs": [
        {
          "name": "questionID",
          "type": "bytes32",
          "internalType": "bytes32"
        }
      ],
      "stateMutability": "nonpayable"
    },
    {
      "type": "function",
      "name": "isAdmin",
      "inputs": [
        {
          "name": "addr",
          "type": "address",
          "internalType": "address"
        }
      ],
      "outputs": [
        {
          "name": "",
          "type": "bool",
          "internalType": "bool"
        }
      ],
      "stateMutability": "view"
    },
    {
      "type": "function",
      "name": "isFlagged",
      "inputs": [
        {
          "name": "questionID",
          "type": "bytes32",
          "internalType": "bytes32"
        }
      ],
      "outputs": [
        {
          "name": "",
          "type": "bool",
          "internalType": "bool"
        }
      ],
      "stateMutability": "view"
    },
    {
      "type": "function",
      "name": "isInitialized",
      "inputs": [
        {
          "name": "questionID",
          "type": "bytes32",
          "internalType": "bytes32"
        }
      ],
      "outputs": [
        {
          "name": "",
          "type": "bool",
          "internalType": "bool"
        }
      ],
      "stateMutability": "view"
    },
    {
      "type": "function",
      "name": "optimisticOracle",
      "inputs": [],
      "outputs": [
        {
          "name": "",
          "type": "address",
          "internalType": "contract IOptimisticOracleV2"
        }
      ],
      "stateMutability": "view"
    },
    {
      "type": "function",
      "name": "pause",
      "inputs": [
        {
          "name": "questionID",
          "type": "bytes32",
          "internalType": "bytes32"
        }
      ],
      "outputs": [],
      "stateMutability": "nonpayable"
    },
    {
      "type": "function",
      "name": "postUpdate",
      "inputs": [
        {
          "name": "questionID",
          "type": "bytes32",
          "internalType": "bytes32"
        },
        {
          "name": "update",
          "type": "bytes",
          "internalType": "bytes"
        }
      ],
      "outputs": [],
      "stateMutability": "nonpayable"
    },
    {
      "type": "function",
      "name": "priceDisputed",
      "inputs": [
        {
          "name": "",
          "type": "bytes32",
          "internalType": "bytes32"
        },
        {
          "name": "",
          "type": "uint256",
          "internalType": "uint256"
        },
        {
          "name": "ancillaryData",
          "type": "bytes",
          "internalType": "bytes"
        },
        {
          "name": "",
          "type": "uint256",
          "internalType": "uint256"
        }
      ],
      "outputs": [],
      "stateMutability": "nonpayable"
    },
    {
      "type": "function",
      "name": "questions",
      "inputs": [
        {
          "name": "",
          "type": "bytes32",
          "internalType": "bytes32"
        }
      ],
      "outputs": [
        {
          "name": "requestTimestamp",
          "type": "uint256",
          "internalType": "uint256"
        },
        {
          "name": "reward",
          "type": "uint256",
          "internalType": "uint256"
        },
        {
          "name": "proposalBond",
          "type": "uint256",
          "internalType": "uint256"
        },
        {
          "name": "liveness",
          "type": "uint256",
          "internalType": "uint256"
        },
        {
          "name": "manualResolutionTimestamp",
          "type": "uint256",
          "internalType": "uint256"
        },
        {
          "name": "resolved",
          "type": "bool",
          "internalType": "bool"
        },
        {
          "name": "paused",
          "type": "bool",
          "internalType": "bool"
        },
        {
          "name": "reset",
          "type": "bool",
          "internalType": "bool"
        },
        {
          "name": "refund",
          "type": "bool",
          "internalType": "bool"
        },
        {
          "name": "rewardToken",
          "type": "address",
          "internalType": "address"
        },
        {
          "name": "creator",
          "type": "address",
          "internalType": "address"
        },
        {
          "name": "ancillaryData",
          "type": "bytes",
          "internalType": "bytes"
        }
      ],
      "stateMutability": "view"
    },
    {
      "type": "function",
      "name": "ready",
      "inputs": [
        {
          "name": "questionID",
          "type": "bytes32",
          "internalType": "bytes32"
        }
      ],
      "outputs": [
        {
          "name": "",
          "type": "bool",
          "internalType": "bool"
        }
      ],
      "stateMutability": "view"
    },
    {
      "type": "function",
      "name": "removeAdmin",
      "inputs": [
        {
          "name": "admin",
          "type": "address",
          "internalType": "address"
        }
      ],
      "outputs": [],
      "stateMutability": "nonpayable"
    },
    {
      "type": "function",
      "name": "renounceAdmin",
      "inputs": [],
      "outputs": [],
      "stateMutability": "nonpayable"
    },
    {
      "type": "function",
      "name": "reset",
      "inputs": [
        {
          "name": "questionID",
          "type": "bytes32",
          "internalType": "bytes32"
        }
      ],
      "outputs": [],
      "stateMutability": "nonpayable"
    },
    {
      "type": "function",
      "name": "resolve",
      "inputs": [
        {
          "name": "questionID",
          "type": "bytes32",
          "internalType": "bytes32"
        }
      ],
      "outputs": [],
      "stateMutability": "nonpayable"
    },
    {
      "type": "function",
      "name": "resolveManually",
      "inputs": [
        {
          "name": "questionID",
          "type": "bytes32",
          "internalType": "bytes32"
        },
        {
          "name": "payouts",
          "type": "uint256[]",
          "internalType": "uint256[]"
        }
      ],
      "outputs": [],
      "stateMutability": "nonpayable"
    },
    {
      "type": "function",
      "name": "unflag",
      "inputs": [
        {
          "name": "questionID",
          "type": "bytes32",
          "internalType": "bytes32"
        }
      ],
      "outputs": [],
      "stateMutability": "nonpayable"
    },
    {
      "type": "function",
      "name": "unpause",
      "inputs": [
        {
          "name": "questionID",
          "type": "bytes32",
          "internalType": "bytes32"
        }
      ],
      "outputs": [],
      "stateMutability": "nonpayable"
    },
    {
      "type": "function",
      "name": "updates",
      "inputs": [
        {
          "name": "",
          "type": "bytes32",
          "internalType": "bytes32"
        },
        {
          "name": "",
          "type": "uint256",
          "internalType": "uint256"
        }
      ],
      "outputs": [
        {
          "name": "timestamp",
          "type": "uint256",
          "internalType": "uint256"
        },
        {
          "name": "update",
          "type": "bytes",
          "internalType": "bytes"
        }
      ],
      "stateMutability": "view"
    },
    {
      "type": "event",
      "name": "AncillaryDataUpdated",
      "inputs": [
        {
          "name": "questionID",
          "type": "bytes32",
          "indexed": true,
          "internalType": "bytes32"
        },
        {
          "name": "owner",
          "type": "address",
          "indexed": true,
          "internalType": "address"
        },
        {
          "name": "update",
          "type": "bytes",
          "indexed": false,
          "internalType": "bytes"
        }
      ],
      "anonymous": false
    },
    {
      "type": "event",
      "name": "NewAdmin",
      "inputs": [
        {
          "name": "admin",
          "type": "address",
          "indexed": true,
          "internalType": "address"
        },
        {
          "name": "newAdminAddress",
          "type": "address",
          "indexed": true,
          "internalType": "address"
        }
      ],
      "anonymous": false
    },
    {
      "type": "event",
      "name": "QuestionFlagged",
      "inputs": [
        {
          "name": "questionID",
          "type": "bytes32",
          "indexed": true,
          "internalType": "bytes32"
        }
      ],
      "anonymous": false
    },
    {
      "type": "event",
      "name": "QuestionInitialized",
      "inputs": [
        {
          "name": "questionID",
          "type": "bytes32",
          "indexed": true,
          "internalType": "bytes32"
        },
        {
          "name": "requestTimestamp",
          "type": "uint256",
          "indexed": true,
          "internalType": "uint256"
        },
        {
          "name": "creator",
          "type": "address",
          "indexed": true,
          "internalType": "address"
        },
        {
          "name": "ancillaryData",
          "type": "bytes",
          "indexed": false,
          "internalType": "bytes"
        },
        {
          "name": "rewardToken",
          "type": "address",
          "indexed": false,
          "internalType": "address"
        },
        {
          "name": "reward",
          "type": "uint256",
          "indexed": false,
          "internalType": "uint256"
        },
        {
          "name": "proposalBond",
          "type": "uint256",
          "indexed": false,
          "internalType": "uint256"
        }
      ],
      "anonymous": false
    },
    {
      "type": "event",
      "name": "QuestionManuallyResolved",
      "inputs": [
        {
          "name": "questionID",
          "type": "bytes32",
          "indexed": true,
          "internalType": "bytes32"
        },
        {
          "name": "payouts",
          "type": "uint256[]",
          "indexed": false,
          "internalType": "uint256[]"
        }
      ],
      "anonymous": false
    },
    {
      "type": "event",
      "name": "QuestionPaused",
      "inputs": [
        {
          "name": "questionID",
          "type": "bytes32",
          "indexed": true,
          "internalType": "bytes32"
        }
      ],
      "anonymous": false
    },
    {
      "type": "event",
      "name": "QuestionReset",
      "inputs": [
        {
          "name": "questionID",
          "type": "bytes32",
          "indexed": true,
          "internalType": "bytes32"
        }
      ],
      "anonymous": false
    },
    {
      "type": "event",
      "name": "QuestionResolved",
      "inputs": [
        {
          "name": "questionID",
          "type": "bytes32",
          "indexed": true,
          "internalType": "bytes32"
        },
        {
          "name": "settledPrice",
          "type": "int256",
          "indexed": true,
          "internalType": "int256"
        },
        {
          "name": "payouts",
          "type": "uint256[]",
          "indexed": false,
          "internalType": "uint256[]"
        }
      ],
      "anonymous": false
    },
    {
      "type": "event",
      "name": "QuestionUnflagged",
      "inputs": [
        {
          "name": "questionID",
          "type": "bytes32",
          "indexed": true,
          "internalType": "bytes32"
        }
      ],
      "anonymous": false
    },
    {
      "type": "event",
      "name": "QuestionUnpaused",
      "inputs": [
        {
          "name": "questionID",
          "type": "bytes32",
          "indexed": true,
          "internalType": "bytes32"
        }
      ],
      "anonymous": false
    },
    {
      "type": "event",
      "name": "RemovedAdmin",
      "inputs": [
        {
          "name": "admin",
          "type": "address",
          "indexed": true,
          "internalType": "address"
        },
        {
          "name": "removedAdmin",
          "type": "address",
          "indexed": true,
          "internalType": "address"
        }
      ],
      "anonymous": false
    },
    {
      "type": "error",
      "name": "Flagged",
      "inputs": []
    },
    {
      "type": "error",
      "name": "Initialized",
      "inputs": []
    },
    {
      "type": "error",
      "name": "InvalidAncillaryData",
      "inputs": []
    },
    {
      "type": "error",
      "name": "InvalidOOPrice",
      "inputs": []
    },
    {
      "type": "error",
      "name": "InvalidPayouts",
      "inputs": []
    },
    {
      "type": "error",
      "name": "NotAdmin",
      "inputs": []
    },
    {
      "type": "error",
      "name": "NotFlagged",
      "inputs": []
    },
    {
      "type": "error",
      "name": "NotInitialized",
      "inputs": []
    },
    {
      "type": "error",
      "name": "NotOptimisticOracle",
      "inputs": []
    },
    {
      "type": "error",
      "name": "NotReadyToResolve",
      "inputs": []
    },
    {
      "type": "error",
      "name": "Paused",
      "inputs": []
    },
    {
      "type": "error",
      "name": "PriceNotAvailable",
      "inputs": []
    },
    {
      "type": "error",
      "name": "Resolved",
      "inputs": []
    },
    {
      "type": "error",
      "name": "SafetyPeriodNotPassed",
      "inputs": []
    },
    {
      "type": "error",
      "name": "SafetyPeriodPassed",
      "inputs": []
    },
    {
      "type": "error",
      "name": "UnsupportedToken",
      "inputs": []
    }
  ],
  "bytecode": {
    "object": "0x60e06040523480156200001157600080fd5b506040516200360338038062003603833981016040819052620000349162000115565b3360009081526020819052604090819020600190556001600160a01b0384811660805282811660a05290516302abf57960e61b81527f436f6c6c61746572616c57686974656c697374000000000000000000000000006004820152839182169063aafd5e4090602401602060405180830381865afa158015620000bb573d6000803e3d6000fd5b505050506040513d601f19601f82011682018060405250810190620000e191906200015f565b6001600160a01b031660c052506200018492505050565b80516001600160a01b03811681146200011057600080fd5b919050565b6000806000606084860312156200012b57600080fd5b6200013684620000f8565b92506200014660208501620000f8565b91506200015660408501620000f8565b90509250925092565b6000602082840312156200017257600080fd5b6200017d82620000f8565b9392505050565b60805160a05160c0516133e66200021d6000396000818161048b015261073a015260008181610245015281816105c601528181610aa701528181611b8001528181611c1301528181611ca901528181611d5301528181611de501528181611e8c01528181611f3b01528181611fdb01526121af01526000818161028401528181610879015281816111a201526122a701526133e66000f3fe608060405234801561001057600080fd5b50600436106101da5760003560e01c80637048027511610104578063bf2dde38116100a2578063ed3c7d4011610071578063ed3c7d40146104ad578063ed56531a146104c0578063f7b637bb146104d3578063fcac49a2146104e657600080fd5b8063bf2dde381461044a578063c0cab0a21461045d578063d1dfb2e91461047d578063e4ee614a1461048657600080fd5b806388697de4116100de57806388697de4146103e357806389ab0871146103f65780638bad0c0a1461041757806395addb901461041f57600080fd5b806370480275146103aa57806378165a48146103bd57806380696d85146103d057600080fd5b806327f8feac1161017c578063555c56fc1161014b578063555c56fc1461033e57806358c039cd1461035e5780635c23bdf51461037e5780636c66f07d1461039157600080fd5b806327f8feac146102e25780632f4dae9f146102eb57806334e5e28e146102fe578063429b62e51461031e57600080fd5b8063185d1646116101b8578063185d16461461021a578063223029221461024057806322a9339f1461027f57806324d7806c146102a657600080fd5b8063072d1259146101df5780630d8f2372146101f45780631785f53c14610207575b600080fd5b6101f26101ed3660046128db565b6104f9565b005b6101f2610202366004612922565b6105bb565b6101f261021536600461298f565b6106a3565b61022d6102283660046129ac565b610718565b6040519081526020015b60405180910390f35b6102677f000000000000000000000000000000000000000000000000000000000000000081565b6040516001600160a01b039091168152602001610237565b6102677f000000000000000000000000000000000000000000000000000000000000000081565b6102d26102b436600461298f565b6001600160a01b031660009081526020819052604090205460011490565b6040519015158152602001610237565b61022d611fcb81565b6101f26102f9366004612a16565b610940565b61031161030c366004612a16565b6109e0565b6040516102379190612a6a565b61022d61032c36600461298f565b60006020819052908152604090205481565b61035161034c366004612a7d565b610b4e565b6040516102379190612b24565b61037161036c366004612a16565b610c98565b6040516102379190612b86565b6101f261038c366004612a16565b610e63565b61022d6e5945535f4f525f4e4f5f515545525960881b81565b6101f26103b836600461298f565b610f1c565b6101f26103cb366004612a16565b610f92565b6101f26103de366004612c59565b611090565b6101f26103f1366004612a16565b61124d565b610409610404366004612cd8565b611360565b604051610237929190612cfa565b6101f2611429565b61043261042d366004612a16565b611494565b6040516102379c9b9a99989796959493929190612d13565b6102d2610458366004612a16565b611599565b61047061046b366004612a7d565b6115b2565b6040516102379190612d97565b61022d610e1081565b6102677f000000000000000000000000000000000000000000000000000000000000000081565b6101f26104bb366004612a16565b61163b565b6101f26104ce366004612a16565b6116ef565b6102d26104e1366004612a16565b6117b9565b6102d26104f4366004612a16565b6117d0565b6040805160208101849052339181019190915260009060600160408051601f19818403018152828252805160209182012060008181526001808452848220868601909552428652858401888152855480830187559583529390912085516002909502019384559151909450908201906105729082612e2a565b505050336001600160a01b0316837e59e11815211969c0c4aaf3f498b52b6c2f2d14f286275d0862d70de22a836b846040516105ae9190612eea565b60405180910390a3505050565b336001600160a01b037f00000000000000000000000000000000000000000000000000000000000000001614610604576040516305cef85560e01b815260040160405180910390fd5b8151602080840191909120600081815260029092526040909120600581015460ff161561066057600581015460068201546001830154610659926001600160a01b0364010000000090910481169216906117e7565b505061069d565b600581015462010000900460ff161561068d57600501805463ff000000191663010000001790555061069d565b61069a30836000846117f7565b50505b50505050565b336000908152602081905260409020546001146106d357604051637bfa4b9f60e01b815260040160405180910390fd5b6001600160a01b0381166000818152602081905260408082208290555133917f787a2e12f4a55b658b8f573c32432ee11a5e8b51677d1e1e937aaf6a0bb5776e91a350565b604051631d1d5b3960e11b81526001600160a01b0385811660048301526000917f000000000000000000000000000000000000000000000000000000000000000090911690633a3ab67290602401602060405180830381865afa158015610783573d6000803e3d6000fd5b505050506040513d601f19601f820116820180604052508101906107a79190612f12565b6107c45760405163350b944160e11b815260040160405180910390fd5b60006107d03388611914565b90508651600014806107e45750611fcb8151115b1561080257604051634b816a8960e11b815260040160405180910390fd5b808051906020012091506108276002600084815260200190815260200160002061196f565b15610845576040516302ed543d60e51b815260040160405180910390fd5b42610856338484848b8b8b8b61198b565b60405163365bb9d560e21b815230600482015260248101849052600260448201527f00000000000000000000000000000000000000000000000000000000000000006001600160a01b03169063d96ee75490606401600060405180830381600087803b1580156108c557600080fd5b505af11580156108d9573d6000803e3d6000fd5b505050506108ec3382848a8a8a8a611b41565b336001600160a01b031681847feee0897acd6893adcaf2ba5158191b3601098ab6bece35c5d57874340b64c5b7858b8b8b60405161092d9493929190612f2d565b60405180910390a4505095945050505050565b3360009081526020819052604090205460011461097057604051637bfa4b9f60e01b815260040160405180910390fd5b60008181526002602052604090206109878161196f565b6109a4576040516321c4e35760e21b815260040160405180910390fd5b60058101805461ff001916905560405182907f92d28918c5574e7fc0f4f948c39502682c81cfb4089b07b83f95b3264e5e5e0690600090a25050565b60008181526002602052604090206060906109fa8161196f565b610a17576040516321c4e35760e21b815260040160405180910390fd5b600481015415610a3a5760405163e8e3a25960e01b815260040160405180910390fd5b6005810154610100900460ff1615610a65576040516313d0ff5960e31b815260040160405180910390fd5b610a6e81611fbf565b610a8b5760405163579a480160e01b815260040160405180910390fd5b805460405163a9904f9b60e01b81526000916001600160a01b037f0000000000000000000000000000000000000000000000000000000000000000169163a9904f9b91610af59130916e5945535f4f525f4e4f5f515545525960881b916007890190600401612fe2565b61020060405180830381865afa158015610b13573d6000803e3d6000fd5b505050506040513d601f19601f82011682018060405250810190610b3791906130c9565b60c001519050610b468161206a565b949350505050565b6060600160008484604051602001610b799291909182526001600160a01b0316602082015260400190565b604051602081830303815290604052805190602001208152602001908152602001600020805480602002602001604051908101604052809291908181526020016000905b82821015610c8b578382906000526020600020906002020160405180604001604052908160008201548152602001600182018054610bfa90612daa565b80601f0160208091040260200160405190810160405280929190818152602001828054610c2690612daa565b8015610c735780601f10610c4857610100808354040283529160200191610c73565b820191906000526020600020905b815481529060010190602001808311610c5657829003601f168201915b50505050508152505081526020019060010190610bbd565b5050505090505b92915050565b610d16604051806101800160405280600081526020016000815260200160008152602001600081526020016000815260200160001515815260200160001515815260200160001515815260200160001515815260200160006001600160a01b0316815260200160006001600160a01b03168152602001606081525090565b6000828152600260208181526040928390208351610180810185528154815260018201549281019290925291820154928101929092526003810154606083015260048101546080830152600581015460ff808216151560a08501526101008083048216151560c08601526201000083048216151560e0860152630100000083049091161515908401526001600160a01b03640100000000909104811661012084015260068201541661014083015260078101805461016084019190610dda90612daa565b80601f0160208091040260200160405190810160405280929190818152602001828054610e0690612daa565b8015610e535780601f10610e2857610100808354040283529160200191610e53565b820191906000526020600020905b815481529060010190602001808311610e3657829003601f168201915b5050505050815250509050919050565b6000818152600260205260409020610e7a8161196f565b610e97576040516321c4e35760e21b815260040160405180910390fd5b6005810154610100900460ff1615610ec2576040516313d0ff5960e31b815260040160405180910390fd5b600581015460ff1615610ee857604051630750078d60e51b815260040160405180910390fd5b610ef181611fbf565b610f0e5760405163b488fe4b60e01b815260040160405180910390fd5b610f188282612193565b5050565b33600090815260208190526040902054600114610f4c57604051637bfa4b9f60e01b815260040160405180910390fd5b6001600160a01b038116600081815260208190526040808220600190555133917ff9ffabca9c8276e99321725bcb43fb076a6c66a54b7f21c4e8146d8519b417dc91a350565b33600090815260208190526040902054600114610fc257604051637bfa4b9f60e01b815260040160405180910390fd5b6000818152600260205260409020610fd98161196f565b610ff6576040516321c4e35760e21b815260040160405180910390fd5b6004810154156110195760405163e8e3a25960e01b815260040160405180910390fd5b600581015460ff161561103f57604051630750078d60e51b815260040160405180910390fd5b61104b610e104261318a565b600482015560058101805461ff00191661010017905560405182907f2435a0347185933b12027c6f394a5fd9c03646dba233e956f50658719dfc0b3590600090a25050565b336000908152602081905260409020546001146110c057604051637bfa4b9f60e01b815260040160405180910390fd5b60008381526002602052604090206110d8838361234f565b6110f557604051630331a49d60e51b815260040160405180910390fd5b6110fe8161196f565b61111b576040516321c4e35760e21b815260040160405180910390fd5b600481015461113d576040516317704ba360e31b815260040160405180910390fd5b806004015442101561116257604051630a8b095f60e21b815260040160405180910390fd5b60058101805460ff1916600117908190556301000000900460ff161561118b5761118b81612394565b604051633124a62b60e21b81526001600160a01b037f0000000000000000000000000000000000000000000000000000000000000000169063c49298ac906111db908790879087906004016131d8565b600060405180830381600087803b1580156111f557600080fd5b505af1158015611209573d6000803e3d6000fd5b50505050837f5909815fe7fe0a550d5fcb95fbf33821b580521d3c97089c6ce12808d1cd0566848460405161123f9291906131fb565b60405180910390a250505050565b3360009081526020819052604090205460011461127d57604051637bfa4b9f60e01b815260040160405180910390fd5b60008181526002602052604090206112948161196f565b6112b1576040516321c4e35760e21b815260040160405180910390fd5b60048101546112d3576040516317704ba360e31b815260040160405180910390fd5b600581015460ff16156112f957604051630750078d60e51b815260040160405180910390fd5b806004015442111561131e57604051635585f97760e11b815260040160405180910390fd5b60006004820181905560058201805461ff001916905560405183917f052435bc04fc49113a7bfd9198a92c0852ca622a621800f6da66d4b29b786c0591a25050565b6001602052816000526040600020818154811061137c57600080fd5b9060005260206000209060020201600091509150508060000154908060010180546113a690612daa565b80601f01602080910402602001604051908101604052809291908181526020018280546113d290612daa565b801561141f5780601f106113f45761010080835404028352916020019161141f565b820191906000526020600020905b81548152906001019060200180831161140257829003601f168201915b5050505050905082565b3360009081526020819052604090205460011461145957604051637bfa4b9f60e01b815260040160405180910390fd5b336000818152602081905260408082208290555182917f787a2e12f4a55b658b8f573c32432ee11a5e8b51677d1e1e937aaf6a0bb5776e91a3565b60026020819052600091825260409091208054600182015492820154600383015460048401546005850154600686015460078701805496989795969495939460ff80851695610100860482169562010000810483169563010000008204909316946401000000009091046001600160a01b039081169493169261151690612daa565b80601f016020809104026020016040519081016040528092919081815260200182805461154290612daa565b801561158f5780601f106115645761010080835404028352916020019161158f565b820191906000526020600020905b81548152906001019060200180831161157257829003601f168201915b505050505090508c565b6000818152600260205260408120600401541515610c92565b60408051808201909152600081526060602082015260006115d38484610b4e565b9050805160000361160b5760405180604001604052806000815260200160405180602001604052806000815250815250915050610c92565b806001825161161a919061320f565b8151811061162a5761162a613226565b602002602001015191505092915050565b3360009081526020819052604090205460011461166b57604051637bfa4b9f60e01b815260040160405180910390fd5b60008181526002602052604090206116828161196f565b61169f576040516321c4e35760e21b815260040160405180910390fd5b600581015460ff16156116c557604051630750078d60e51b815260040160405180910390fd5b60058101546301000000900460ff16156116e2576116e281612394565b610f1833836001846117f7565b3360009081526020819052604090205460011461171f57604051637bfa4b9f60e01b815260040160405180910390fd5b60008181526002602052604090206117368161196f565b611753576040516321c4e35760e21b815260040160405180910390fd5b600581015460ff161561177957604051630750078d60e51b815260040160405180910390fd5b60058101805461ff00191661010017905560405182907f6ded7250a9d5f79aef5add44600fc20a74a0af6f4730baa4fc4ab87bf484b81290600090a25050565b6000818152600260205260408120610c929061196f565b6000818152600260205260408120610c92906123c5565b6117f2838383612414565b505050565b4280825560058201805462ff000019166201000017905582156118245760058201805463ff000000191690555b6118e2858284600701805461183890612daa565b80601f016020809104026020016040519081016040528092919081815260200182805461186490612daa565b80156118b15780601f10611886576101008083540402835291602001916118b1565b820191906000526020600020905b81548152906001019060200180831161189457829003601f168201915b50505050508560050160049054906101000a90046001600160a01b0316866001015487600201548860030154611b41565b60405184907f7981b5832932948db4e32a4a16a0f44b2ce7ff088574afb9364b313f70f82e8f90600090a25050505050565b6060816040518060400160405280600d81526020016c1634b734ba34b0b634bd32b91d60991b81525061194685612491565b6040516020016119589392919061323c565b604051602081830303815290604052905092915050565b60008082600701805461198190612daa565b9050119050919050565b60405180610180016040528086815260200184815260200183815260200182815260200160008152602001600015158152602001600015158152602001600015158152602001600015158152602001856001600160a01b03168152602001896001600160a01b031681526020018781525060026000898152602001908152602001600020600082015181600001556020820151816001015560408201518160020155606082015181600301556080820151816004015560a08201518160050160006101000a81548160ff02191690831515021790555060c08201518160050160016101000a81548160ff02191690831515021790555060e08201518160050160026101000a81548160ff0219169083151502179055506101008201518160050160036101000a81548160ff0219169083151502179055506101208201518160050160046101000a8154816001600160a01b0302191690836001600160a01b031602179055506101408201518160060160006101000a8154816001600160a01b0302191690836001600160a01b03160217905550610160820151816007019081611b349190612e2a565b5050505050505050505050565b8215611c92576001600160a01b0387163014611b6357611b63848830866124fe565b604051636eb1769f60e11b81523060048201526001600160a01b037f00000000000000000000000000000000000000000000000000000000000000008116602483015284919086169063dd62ed3e90604401602060405180830381865afa158015611bd2573d6000803e3d6000fd5b505050506040513d601f19601f82011682018060405250810190611bf6919061327f565b1015611c925760405163095ea7b360e01b81526001600160a01b037f000000000000000000000000000000000000000000000000000000000000000081166004830152600019602483015285169063095ea7b3906044016020604051808303816000875af1158015611c6c573d6000803e3d6000fd5b505050506040513d601f19601f82011682018060405250810190611c909190612f12565b505b6040516311df92f160e01b81526001600160a01b037f000000000000000000000000000000000000000000000000000000000000000016906311df92f190611cf8906e5945535f4f525f4e4f5f515545525960881b908a908a908a908a90600401613298565b6020604051808303816000875af1158015611d17573d6000803e3d6000fd5b505050506040513d601f19601f82011682018060405250810190611d3b919061327f565b5060405163120698af60e01b81526001600160a01b037f0000000000000000000000000000000000000000000000000000000000000000169063120698af90611d9e906e5945535f4f525f4e4f5f515545525960881b908a908a906004016132d4565b600060405180830381600087803b158015611db857600080fd5b505af1158015611dcc573d6000803e3d6000fd5b505060405163f327b07560e01b81526001600160a01b037f000000000000000000000000000000000000000000000000000000000000000016925063f327b0759150611e3a906e5945535f4f525f4e4f5f515545525960881b908a908a9060009060019082906004016132f3565b600060405180830381600087803b158015611e5457600080fd5b505af1158015611e68573d6000803e3d6000fd5b505050506000821115611f1e576040516356ad3aad60e11b81526001600160a01b037f0000000000000000000000000000000000000000000000000000000000000000169063ad5a755a90611ed9906e5945535f4f525f4e4f5f515545525960881b908a908a908890600401613332565b6020604051808303816000875af1158015611ef8573d6000803e3d6000fd5b505050506040513d601f19601f82011682018060405250810190611f1c919061327f565b505b8015611fb65760405163239e22ff60e11b81526001600160a01b037f0000000000000000000000000000000000000000000000000000000000000000169063473c45fe90611f88906e5945535f4f525f4e4f5f515545525960881b908a908a908790600401613332565b600060405180830381600087803b158015611fa257600080fd5b505af1158015611b34573d6000803e3d6000fd5b50505050505050565b8054604051635e2c665560e11b81526000916001600160a01b037f0000000000000000000000000000000000000000000000000000000000000000169163bc58ccaa916120299130916e5945535f4f525f4e4f5f515545525960881b916007890190600401612fe2565b602060405180830381865afa158015612046573d6000803e3d6000fd5b505050506040513d601f19601f82011682018060405250810190610c929190612f12565b6040805160028082526060808301845292600092919060208301908036833701905050905082158015906120a65750826706f05b59d3b2000014155b80156120ba575082670de0b6b3a764000014155b156120d857604051634364b24f60e11b815260040160405180910390fd5b82600003612127576000816000815181106120f5576120f5613226565b60200260200101818152505060018160018151811061211657612116613226565b602002602001018181525050610c92565b826706f05b59d3b200000361214b576001816000815181106120f5576120f5613226565b60018160008151811061216057612160613226565b60200260200101818152505060008160018151811061218157612181613226565b60200260200101818152505092915050565b80546040516353b5923960e01b81526000916001600160a01b037f000000000000000000000000000000000000000000000000000000000000000016916353b59239916121fc916e5945535f4f525f4e4f5f515545525960881b91906007880190600401613362565b6020604051808303816000875af115801561221b573d6000803e3d6000fd5b505050506040513d601f19601f8201168201806040525081019061223f919061327f565b9050600160ff1b8103612259576117f230846001856117f7565b60058201805460ff1916600117908190556301000000900460ff16156122825761228282612394565b600061228d8261206a565b604051633124a62b60e21b81529091506001600160a01b037f0000000000000000000000000000000000000000000000000000000000000000169063c49298ac906122de9087908590600401613381565b600060405180830381600087803b1580156122f857600080fd5b505af115801561230c573d6000803e3d6000fd5b5050505081847f566c3fbdd12dd86bb341787f6d531f79fd7ad4ce7e3ae2d15ac0ca1b601af9df836040516123419190612a6a565b60405180910390a350505050565b600061238d83838080602002602001604051908101604052809392919081815260200183836020028082843760009201919091525061250a92505050565b9392505050565b6005810154600682015460018301546123c2926001600160a01b0364010000000090910481169216906117e7565b50565b60006123d08261196f565b6123dc57506000919050565b6005820154610100900460ff16156123f657506000919050565b600582015460ff161561240b57506000919050565b610c9282611fbf565b600060405163a9059cbb60e01b8152836004820152826024820152602060006044836000895af13d15601f3d116001600051141617169150508061069d5760405162461bcd60e51b815260206004820152600f60248201526e1514905394d1915497d19052531151608a1b60448201526064015b60405180910390fd5b60606124a96001600160801b03602084901c166125eb565b6124c48360601b6bffffffffffffffffffffffff19166125eb565b6040516020016124e89291909182526001600160c01b031916602082015260280190565b6040516020818303038152906040529050919050565b61069d84848484612784565b6000815160021461251d57506000919050565b8160008151811061253057612530613226565b6020026020010151600114801561258557508160018151811061255557612555613226565b60200260200101516000148061258557508160018151811061257957612579613226565b60200260200101516001145b1561259257506001919050565b816000815181106125a5576125a5613226565b602002602001015160001480156125d65750816001815181106125ca576125ca613226565b60200260200101516001145b156125e357506001919050565b506000919050565b6000808260001c9050806001600160801b03169050806801000000000000000002811777ffffffffffffffff0000000000000000ffffffffffffffff169050806401000000000281177bffffffff00000000ffffffff00000000ffffffff00000000ffffffff16905080620100000281177dffff0000ffff0000ffff0000ffff0000ffff0000ffff0000ffff0000ffff169050806101000281177eff00ff00ff00ff00ff00ff00ff00ff00ff00ff00ff00ff00ff00ff00ff00ff1690508060100281177f0f0f0f0f0f0f0f0f0f0f0f0f0f0f0f0f0f0f0f0f0f0f0f0f0f0f0f0f0f0f0f0f16905060006008827f080808080808080808080808080808080808080808080808080808080808080816816127065761270661339a565b0460047f040404040404040404040404040404040404040404040404040404040404040484160460027f020202020202020202020202020202020202020202020202020202020202020285160417166027029091017f3030303030303030303030303030303030303030303030303030303030303030019392505050565b60006040516323b872dd60e01b81528460048201528360248201528260448201526020600060648360008a5af13d15601f3d11600160005114161716915050806128075760405162461bcd60e51b81526020600482015260146024820152731514905394d1915497d19493d357d1905253115160621b6044820152606401612488565b5050505050565b634e487b7160e01b600052604160045260246000fd5b604051610140810167ffffffffffffffff811182821017156128485761284861280e565b60405290565b600082601f83011261285f57600080fd5b813567ffffffffffffffff8082111561287a5761287a61280e565b604051601f8301601f19908116603f011681019082821181831017156128a2576128a261280e565b816040528381528660208588010111156128bb57600080fd5b836020870160208301376000602085830101528094505050505092915050565b600080604083850312156128ee57600080fd5b82359150602083013567ffffffffffffffff81111561290c57600080fd5b6129188582860161284e565b9150509250929050565b6000806000806080858703121561293857600080fd5b8435935060208501359250604085013567ffffffffffffffff81111561295d57600080fd5b6129698782880161284e565b949793965093946060013593505050565b6001600160a01b03811681146123c257600080fd5b6000602082840312156129a157600080fd5b813561238d8161297a565b600080600080600060a086880312156129c457600080fd5b853567ffffffffffffffff8111156129db57600080fd5b6129e78882890161284e565b95505060208601356129f88161297a565b94979496505050506040830135926060810135926080909101359150565b600060208284031215612a2857600080fd5b5035919050565b600081518084526020808501945080840160005b83811015612a5f57815187529582019590820190600101612a43565b509495945050505050565b60208152600061238d6020830184612a2f565b60008060408385031215612a9057600080fd5b823591506020830135612aa28161297a565b809150509250929050565b60005b83811015612ac8578181015183820152602001612ab0565b8381111561069d5750506000910152565b60008151808452612af1816020860160208601612aad565b601f01601f19169290920160200192915050565b805182526000602082015160406020850152610b466040850182612ad9565b6000602080830181845280855180835260408601915060408160051b870101925083870160005b82811015612b7957603f19888603018452612b67858351612b05565b94509285019290850190600101612b4b565b5092979650505050505050565b6020815281516020820152602082015160408201526040820151606082015260608201516080820152608082015160a0820152600060a0830151612bce60c084018215159052565b5060c083015180151560e08401525060e0830151610100612bf28185018315159052565b8401519050610120612c078482018315159052565b8401519050610140612c23848201836001600160a01b03169052565b8401519050610160612c3f848201836001600160a01b03169052565b840151610180848101529050610b466101a0840182612ad9565b600080600060408486031215612c6e57600080fd5b83359250602084013567ffffffffffffffff80821115612c8d57600080fd5b818601915086601f830112612ca157600080fd5b813581811115612cb057600080fd5b8760208260051b8501011115612cc557600080fd5b6020830194508093505050509250925092565b60008060408385031215612ceb57600080fd5b50508035926020909101359150565b828152604060208201526000610b466040830184612ad9565b8c8152602081018c9052604081018b9052606081018a90526080810189905287151560a082015286151560c082015285151560e08201528415156101008201526001600160a01b038481166101208301528316610140820152600061018080610160840152612d8481840185612ad9565b9f9e505050505050505050505050505050565b60208152600061238d6020830184612b05565b600181811c90821680612dbe57607f821691505b602082108103612dde57634e487b7160e01b600052602260045260246000fd5b50919050565b601f8211156117f257600081815260208120601f850160051c81016020861015612e0b5750805b601f850160051c820191505b8181101561069a57828155600101612e17565b815167ffffffffffffffff811115612e4457612e4461280e565b612e5881612e528454612daa565b84612de4565b602080601f831160018114612e8d5760008415612e755750858301515b600019600386901b1c1916600185901b17855561069a565b600085815260208120601f198616915b82811015612ebc57888601518255948401946001909101908401612e9d565b5085821015612eda5787850151600019600388901b60f8161c191681555b5050505050600190811b01905550565b60208152600061238d6020830184612ad9565b80518015158114612f0d57600080fd5b919050565b600060208284031215612f2457600080fd5b61238d82612efd565b608081526000612f406080830187612ad9565b6001600160a01b03959095166020830152506040810192909252606090910152919050565b60008154612f7281612daa565b808552602060018381168015612f8f5760018114612fa957612fd7565b60ff1985168884015283151560051b880183019550612fd7565b866000528260002060005b85811015612fcf5781548a8201860152908301908401612fb4565b890184019650505b505050505092915050565b60018060a01b038516815283602082015282604082015260806060820152600061300f6080830184612f65565b9695505050505050565b8051612f0d8161297a565b600060e0828403121561303657600080fd5b60405160e0810181811067ffffffffffffffff821117156130595761305961280e565b60405290508061306883612efd565b815261307660208401612efd565b602082015261308760408401612efd565b604082015261309860608401612efd565b60608201526130a960808401612efd565b608082015260a083015160a082015260c083015160c08201525092915050565b600061020082840312156130dc57600080fd5b6130e4612824565b6130ed83613019565b81526130fb60208401613019565b602082015261310c60408401613019565b604082015261311d60608401612efd565b606082015261312f8460808501613024565b608082015261016083015160a082015261018083015160c08201526101a083015160e08201526101c08301516101008201526101e09092015161012083015250919050565b634e487b7160e01b600052601160045260246000fd5b6000821982111561319d5761319d613174565b500190565b81835260006001600160fb1b038311156131bb57600080fd5b8260051b8083602087013760009401602001938452509192915050565b8381526040602082015260006131f26040830184866131a2565b95945050505050565b602081526000610b466020830184866131a2565b60008282101561322157613221613174565b500390565b634e487b7160e01b600052603260045260246000fd5b6000845161324e818460208901612aad565b845190830190613262818360208901612aad565b8451910190613275818360208801612aad565b0195945050505050565b60006020828403121561329157600080fd5b5051919050565b85815284602082015260a0604082015260006132b760a0830186612ad9565b6001600160a01b0394909416606083015250608001529392505050565b8381528260208201526060604082015260006131f26060830184612ad9565b86815285602082015260c06040820152600061331260c0830187612ad9565b9415156060830152509115156080830152151560a0909101529392505050565b8481528360208201526080604082015260006133516080830185612ad9565b905082606083015295945050505050565b8381528260208201526060604082015260006131f26060830184612f65565b828152604060208201526000610b466040830184612a2f565b634e487b7160e01b600052601260045260246000fdfea2646970667358221220b9ddce2510d3ff7d69c7cb48452e0e0ccef2d6a95d264f4737c1785e89c5ff4464736f6c634300080f0033",
    "linkReferences": {}
  },
  "methodIdentifiers": {
    "MAX_ANCILLARY_DATA()": "27f8feac",
    "SAFETY_PERIOD()": "d1dfb2e9",
    "YES_OR_NO_IDENTIFIER()": "6c66f07d",
    "addAdmin(address)": "70480275",
    "admins(address)": "429b62e5",
    "collateralWhitelist()": "e4ee614a",
    "ctf()": "22a9339f",
    "flag(bytes32)": "78165a48",
    "getExpectedPayouts(bytes32)": "34e5e28e",
    "getLatestUpdate(bytes32,address)": "c0cab0a2",
    "getQuestion(bytes32)": "58c039cd",
    "getUpdates(bytes32,address)": "555c56fc",
    "initialize(bytes,address,uint256,uint256,uint256)": "185d1646",
    "isAdmin(address)": "24d7806c",
    "isFlagged(bytes32)": "bf2dde38",
    "isInitialized(bytes32)": "f7b637bb",
    "optimisticOracle()": "22302922",
    "pause(bytes32)": "ed56531a",
    "postUpdate(bytes32,bytes)": "072d1259",
    "priceDisputed(bytes32,uint256,bytes,uint256)": "0d8f2372",
    "questions(bytes32)": "95addb90",
    "ready(bytes32)": "fcac49a2",
    "removeAdmin(address)": "1785f53c",
    "renounceAdmin()": "8bad0c0a",
    "reset(bytes32)": "ed3c7d40",
    "resolve(bytes32)": "5c23bdf5",
    "resolveManually(bytes32,uint256[])": "80696d85",
    "unflag(bytes32)": "88697de4",
    "unpause(bytes32)": "2f4dae9f",
    "updates(bytes32,uint256)": "89ab0871"
  },
  "id": 42
}